:020000040800F2
:10000000E808002049010008452B0008472B00089C
:100010004B2B00084F2B0008532B0008000000005A
:10002000000000000000000000000000572B000846
:10003000592B0008000000005B2B0008610100083C
:100040006301000863010008630100086301000800
:1000500063010008630100086301000863010008F0
:1000600063010008630100086301000863010008E0
:1000700063010008630100086301000863010008D0
:100080006301000863010008952C00086301000863
:1000900063010008630100086301000863010008B0
:1000A00063010008630100086301000863010008A0
:1000B00063010008492F000863010008630100087C
:1000C0006301000863010008630100086301000880
:1000D000630100088B330008630100086301000816
:1000E000432D000863010008630100086301000854
:1000F0006301000863010008630100086301000850
:10010000630100086301000863010008630100083F
:1001100063010008630100087731000863010008EB
:10012000630100086301000863010008630100081F
:10013000DFF810D003F028FC00480047FD2A000833
:10014000AFF30080E80800200648804706480047D3
:10015000FEE7FEE7FEE7FEE7FEE7FEE7FEE7FEE777
:10016000FEE7FEE74B020008310100080CB5002055
:10017000019000906C48006840F480306A49086043
:1001800000BF6948006800F4003000900198401CEE
:100190000190009818B90198B0F5A06FF1D16248AC
:1001A000006800F4003010B10120009001E0002050
:1001B00000900098012843D15C48006840F010008E
:1001C0005A4908600846006820F0030008600846A5
:1001D000006840F002000860534840685249486097
:1001E0000846406848600846406840F480604860BF
:1001F0000846406820F47C1048600846406840F497
:10020000E81048600846006840F08070086000BF51
:100210004548006800F000700028F9D04248406866
:1002200020F00300404948600846406840F0020062
:10023000486000BF3C48406800F00C000828F9D135
:100240000CBD10B5FFF792FF10BD10B53648006821
:1002500040F00100344908600846406834490840CD
:100260003149486008460068324908402E49086014
:100270000846006820F4802008600846406820F4A2
:10028000FE0048604FF41F008860FFF7DAFF4FF070
:1002900000602949086010BD10B50021002000222F
:1002A000214B5B6803F00C0121B1042906D0082919
:1002B00028D107E0214B224C236027E01F4B204C24
:1002C000236023E0184B5B6803F47010164B5B68E7
:1002D00003F48032022303EB904022B9194B4343CD
:1002E000174C23600DE0104B5B6803F4003323B11F
:1002F000144B4343124C236003E0104B4343104C18
:10030000236003E00D4B0E4C236000BF00BF064B83
:100310005B68C3F303130C4CE15C094B1B68CB40D7
:10032000074C236010BD0000001002400020024076
:100330000000FFF8FFFFF6FE08ED00E000127A0073
:100340000000002000093D00040000203149014365
:10035000314A1160704770B5002100230F22C47824
:1003600004B32D4C246804F4E064C4F5E064210A6D
:10037000C1F10403CA40447804FA03F184781440BC
:1003800021430901254C0678A155047804F01F0586
:100390000124AC4005786D11AD0005F1E025C5F8EC
:1003A000004109E0047804F01F050124AC401C4D15
:1003B0000678761145F8264070BD1A4A0A40024375
:1003C000154B1B1F1A60704739B1134A121D126872
:1003D0000243114B1B1D1A6006E00F4A121D1268E2
:1003E00082430D4B1B1D1A607047042808D14FF043
:1003F000E021096941F004014FF0E022116107E0BA
:100400004FF0E021096921F004014FF0E022116171
:10041000704700000000FA050CED00E000E400E089
:1004200080E100E080FFFF1F10B50446FA488442D7
:1004300008D10121401500F00DFF0021601500F0EA
:1004400009FF17E0F548844208D10121001500F0AA
:1004500001FF0021201500F0FDFE0BE0F048844272
:1004600008D10121C80300F0F5FE00214FF400403F
:1004700000F0F0FE10BD30B50246002000235068A9
:10048000E84C20400D790C6844EA05242043506074
:100490009068E54C2040D1E902542C434D7944EA60
:1004A000450420439060D06A20F470000C7C641EE8
:1004B000E4B2234340EA0350D06230BD0021016022
:1004C000017141718160C16001210174704721B1E6
:1004D000826842F00102826003E0826822F0010239
:1004E0008260704721B1826842F48072826003E0CA
:1004F000826822F480728260704710B50023CBB20C
:100500001AB144681C43446002E044689C43446060
:1005100010BD816841F008018160704701460020EC
:100520008A6802F008020AB1012000E0002070474A
:10053000816841F0040181607047014600208A68AB
:1005400002F004020AB1012000E00020704721B14E
:10055000826842F4A002826003E0826822F4A00272
:1005600082607047014600208A6802F480020AB166
:10057000012000E00020704710B50A46002100234A
:10058000416821F46041531E41EA4331416010BD8E
:1005900021B1426842F40062426003E0426822F402
:1005A000006242607047F0B504460D46002000210D
:1005B000092D11DDE068A5F10A0606EB46070726BE
:1005C00006FA07F18843A5F10A0606EB460603FA88
:1005D00006F10843E0600CE0206905EB45070726BB
:1005E00006FA07F1884305EB450603FA06F10843CE
:1005F0002061072A0FDA606B561E06EB86071F265E
:1006000006FA07F18843561E06EB860605FA06F140
:100610000843606322E00D2A0FDA206BD61F06EB39
:1006200086071F2606FA07F18843D61F06EB8606C3
:1006300005FA06F10843206310E0E06AA2F10D0616
:1006400006EB86071F2606FA07F18843A2F10D067E
:1006500006EB860605FA06F10843E062F0BD21B11B
:10066000826842F48012826003E0826822F4801281
:10067000826070470146C86C80B2704766484C3053
:100680000068704721B1426842F48062426003E032
:10069000426822F480624260704721B1426842F4AD
:1006A0008052426003E0426822F480524260704708
:1006B0000A460021816821F4E041114381607047BE
:1006C00021B1826842F40042826003E0826822F431
:1006D00000428260704721B1826842F40212826057
:1006E00003E0826822F40212826070470146002013
:1006F0008A6802F400120AB1012000E0002070476D
:10070000F0B504461546002000220026092911DD17
:10071000E068A1F10A0707EB470C072707FA0CF27C
:100720009043A1F10A0707EB470703FA07F21043CA
:10073000E0600CE0206901EB410C072707FA0CF29E
:10074000904301EB410703FA07F210432061A06BCD
:10075000C0F30156EF1C06F1010CA7EB0C0707EBE9
:10076000870C1F2707FA0CF29043EF1C06F1010CCF
:10077000A7EB0C0707EB870701FA07F21043A0630A
:10078000F0BD10B50A4600210023816B21F4401111
:10079000531E41EA0351816310BD08B50023009345
:1007A0000090009B0B440093009B1A6008BD08B5A5
:1007B000024600200090009201F12800009B18449E
:1007C00000900098006880B208BD0A460021416888
:1007D000164B194011434160704741628262704775
:1007E0000A460021416821F01F0111434160704712
:1007F00040B109490831096841F40001064A08324C
:10080000116007E004490831096821F40001024A37
:1008100008321160704700000024014000280140A8
:10082000003C0140FFFEF0FFFDF7F1FFFFFD3FFF41
:100830000246002013680B400BB1012000E00020AD
:100840007047CA430260704770B50246002000231B
:1008500000240B125568CEB205EA060415681D4047
:1008600015B10CB1012000E0002070BD00220A1279
:10087000D34303607047000001684FF6FE721140D9
:1008800001600021016041608160C1608D49884242
:1008900008D18C490839496841F00F01894A083A62
:1008A00051608AE087491431884208D18549083966
:1008B000496841F0F001834A083A51607DE081497E
:1008C0002831884208D17F490839496841F470616C
:1008D0007C4A083A516070E07A493C31884208D13C
:1008E00078490839496841F47041764A083A5160BC
:1008F00063E074495031884208D172490839496827
:1009000041F470216F4A083A516056E06D496431F4
:10091000884208D16B490839496841F47001694A35
:10092000083A516049E067497831884208D1654901
:100930000839496841F07061624A083A51603CE008
:100940006149884206D1011F096841F00F01021F69
:10095000116032E05C491431884208D15A49091FBC
:10096000096841F0F001584A121F116025E056490C
:100970002831884208D15449091F096841F470613F
:10098000514A121F116018E04F493C31884208D18A
:100990004D49091F096841F470414B4A121F11600B
:1009A0000BE049495031884207D14749091F09687E
:1009B00041F47021444A121F1160704710B50022A3
:1009C000026847F6F0739A430C6A8B6823430C69FC
:1009D00023434C6923438C692343CC6923434C6AEA
:1009E00023438C6A23431A430260CB6843600B683D
:1009F00083604B68C36010BD00210160416081606D
:100A0000C160016141618161C161016241628162D4
:100A1000704721B1026842F00102026004E00268FE
:100A20004FF6FE731A40026070471AB103680B4319
:100A3000036002E003688B430360704741607047C6
:100A40000146486880B2704701460020002201F04C
:100A500080531BB11C4B083B1A6802E0194B083B42
:100A60001A6802EA01030BB1012000E00020704780
:100A700000F0805119B11449091F086002E01149C2
:100A800008394860704701460020002201F0805379
:100A90001BB10D4B083B1A6802E00A4B083B1A6871
:100AA00002EA01030BB1012000E00020704700F0D2
:100AB000805119B10449091F086002E00149083951
:100AC0004860704708000240080402400020444982
:100AD0000860091D0860091D0860091D086041487B
:100AE0003F4914310860704700213D498279002A4E
:100AF0003AD00A46126803689A430B461A600A1DE8
:100B0000126803689A430B1D1A60027911440A683F
:100B100003681A430A60324A0832126803689A432B
:100B20002F4B08331A601A1D126803689A432C4B26
:100B30000C331A604279102A0ED11A1F126803680A
:100B40001A43274B08331A601A1D126803681A43A8
:100B5000234B0C331A600DE02149427911440A6895
:100B600003681A430A6005E0027911440A680368C1
:100B70009A430A6070470021016001710C214171A4
:100B80000021817170471649103109680143144AE8
:100B900010321160704701460020114A1432126869
:100BA0000A400AB1012000E0002070470C491431CE
:100BB00008607047014600200022094B1B6803EAC9
:100BC0000102074B14331B680B4013B10AB101201B
:100BD00000E00020704702491431086070470000AF
:100BE00000040140FFFF0F0010B50446CC488442CA
:100BF00008D10121042000F02DFB0021042000F089
:100C000029FB46E0C748844208D10121082000F0B2
:100C100021FB0021082000F01DFB3AE0C24884427D
:100C200008D10121102000F015FB0021102000F058
:100C300011FB2EE0BD48844208D10121202000F0A4
:100C400009FB0021202000F005FB22E0B848844287
:100C500008D10121402000F0FDFA0021402000F0E1
:100C6000F9FA16E0B348844208D10121802000F04F
:100C7000F1FA0021802000F0EDFA0AE0AE4884424B
:100C800007D10121801500F0E5FA0021A01500F040
:100C9000E1FA10BD10B50121084600F0DBFA002191
:100CA000012000F0D7FA10BD2DE9F04102460025E1
:100CB0000026002000230024002791F803C00CF038
:100CC0000F0591F803C00CF0100CBCF1000F03D01D
:100CD00091F802C04CEA050591F800C0BCF1000F84
:100CE00031D0146800202BE04FF0010C0CFA00F317
:100CF000B1F800C00CEA03069E4220D183004FF0F9
:100D00000F0C0CFA03F7BC4305FA03FC4CEA04048D
:100D100091F803C0BCF1280F06D14FF0010C0CFA7A
:100D200000FCC2F814C00AE091F803C0BCF1480FFF
:100D300005D14FF0010C0CFA00FCC2F810C0401CA9
:100D40000828D1D31460B1F800C0BCF1FF0F34DD26
:100D5000546800202EE000F1080C4FF0010808FA5A
:100D60000CF3B1F800C00CEA03069E4221D18300C7
:100D70004FF00F0C0CFA03F7BC4305FA03FC4CEAE6
:100D8000040491F803C0BCF1280F05D100F1080C50
:100D900008FA0CF8C2F8148091F803C0BCF1480FAF
:100DA00007D100F1080C4FF0010808FA0CF8C2F85E
:100DB0001080401C0828CED35460BDE8F0814FF667
:100DC000FF710180022181700421C17070470246C9
:100DD000002093680B400BB1012000E00020704719
:100DE0000146886880B2704702460020D3680B40F5
:100DF0000BB1012000E0002070470146C86880B2B6
:100E0000704701617047416170470AB1016100E0BC
:100E100041617047C16070474FF480320A4382617C
:100E20008161826182698269704702460020434B7A
:100E300018684FF68073184040EA021008433F4B91
:100E4000186070473E49C8617047F0B50A460023F4
:100E500000240021002500F00046B6F1004F02D129
:100E6000364EF16901E0354E7168C0F3034583B237
:100E700000F44016B6F5401F08D121F070612F4EE6
:100E8000766826F070662D4F7E6012E000F48016C2
:100E9000B6F5801F06D1032606FA05F4A14341F0FA
:100EA000706106E0460D360103FA06F6B14341F0E3
:100EB000706122B1460D360103FA06F6314300F0A7
:100EC0000046B6F1004F02D11C4EF16101E01B4E0D
:100ED0007160F0BD30B500228B071C0F0F2303FAA1
:100EE00004F2164B08338C1053F824309343134C00
:100EF00008348D1044F8253023468C1053F82430E4
:100F00008C07240F00FA04F423430C4C08348D1092
:100F100044F8253030BD0A49DC31086070470000D4
:100F200000080140000C0140001001400014014085
:100F300000180140001C0140002001400000014059
:100F400000002042DF48006840F00100DD490860F1
:100F500008464068DC490840DA49486008460068AD
:100F6000DA490840D74908600846006820F4802024
:100F700008600846406820F4FE0048604FF41F00F7
:100F800088607047CF49096821F48031CD4A1160EB
:100F90001146096821F480211160B0F5803F03D02B
:100FA000B0F5802F0ED106E0C649096841F48031C2
:100FB000C44A116007E0C349096841F4A021C14A4D
:100FC000116000E000BF00BF704710B5014600226D
:100FD000002300204A11012A02D1BA4C236806E0FE
:100FE000022A02D1B74C236A01E0B64C636A01F0D1
:100FF0001F02012494401C400CB1012000E000209D
:1010000010BD38B5002000900024002500BF31201D
:10101000FFF7DBFF05460098401C00900098B0F5F4
:10102000A06F01D0002DF2D03120FFF7CEFF08B124
:10103000012400E00024204638BD01460020A14ADA
:10104000106820F0F80040EAC10010607047A04925
:1010500008607047024600209A4B586820F47C10C4
:1010600042EA01031843974B586070479849086655
:10107000704701460020934A506820F0030008435F
:10108000506070478F48406800F00C007047014680
:1010900000208C4A506820F0F000084350607047F0
:1010A00001460020874A506820F4E0600843506001
:1010B000704701460020834A506820F4605040EA9F
:1010C000C1005060704729B17E4A527A02437D4B7D
:1010D0005A7204E07B4A527A82437A4B5A727047C2
:1010E0007B49D8310860704701460020754A506836
:1010F00020F440400843506070470021714A20327C
:101100001170704A82F82010012802D004280AD1F8
:1011100004E001216B4A2032117005E00521694A83
:101120002032117000E000BF00BF704769490860BD
:1011300070476449096A0143624A11627047654910
:1011400044390860704730B5002100220024002394
:101150005C4D6D6805F00C0121B1042905D008290A
:1011600023D105E05C4D056022E05B4D05601FE08A
:10117000544D6D6805F47012524D6D6805F480345D
:10118000022505EB92421CB9544D554305600BE016
:101190004C4D6D6805F400351DB1504D554305604B
:1011A00002E04D4D5543056002E04B4D056000BF28
:1011B00000BF444D6D6805F0F0010909484D6B5CB6
:1011C0000568DD4045603F4D6D6805F4E061090A42
:1011D000434D6B5C4568DD4085603A4D6D6805F4B4
:1011E0006051C90A3E4D6B5C4568DD40C560354DB8
:1011F0006D6805F44041890B3A4D6B5CC568B5FBE1
:10120000F3F5056130BD29B12E4A526902432D4BD9
:101210005A6104E02B4A526982432A4B5A61704753
:1012200029B1284A92690243264B9A6104E0254A73
:1012300092698243234B9A61704729B1214AD2694E
:101240000243204BDA6104E01E4AD26982431D4BFF
:10125000DA61704729B11B4AD2680243194BDA6040
:1012600004E0184AD2688243164BDA60704729B10D
:10127000144A12690243134B1A6104E0114A1269BD
:101280008243104B1A617047124940390860704719
:101290000F49C86470470B49C87170470948406AD4
:1012A00040F0807007494862704701460020054AB7
:1012B00092680A400AB1012000E00020704701490D
:1012C00088727047001002400000FFF8FFFFF6FE32
:1012D000000042428004424200127A0000093D00B0
:1012E000140000202400002010B50446BE488442AB
:1012F00008D101218014FFF7ADFF0021A014FFF7F2
:10130000A9FF16E0B948844208D101210014FFF773
:10131000AEFF00212014FFF7AAFF0AE0B448844280
:1013200007D10121C013FFF7A2FF0021E013FFF74F
:101330009EFF10BD10B50022028802F441520B88B6
:101340004C8823438C882343CC8823430C89234334
:101350004C8923438C892343CC8923431A4302803D
:10136000838B4FF2FF74234083830B8A038210BD6B
:101370002DE9F04F85B005460C464FF000090227D5
:101380004FF000084FF0010B0026B246A88B4FF239
:1013900040010840A88302202884B5F81C90A0686A
:1013A000022801D100BF38E0A08810B94FF0010B2E
:1013B00001E04FF0020B8D48854200D100E000BFF4
:1013C0006846FFF7C0FEDDF800A0E088B0F5007FBA
:1013D0000AD14FEA1A2000EB80004000A168B0FB60
:1013E000F1F0401D86B20BE04FEA4B10BAFBF0F073
:1013F00000EB80004000A168B0FBF1F0401D86B218
:101400000A20B6FBF0F606F00108A6EB0800C0F3D0
:101410004F074FF6FF7000EA0828022F01DBFF2F6D
:1014200002DD02274FF00008E08840EA0800384358
:101430002884A088A189084361880843218808433B
:1014400040F4006040EA0909A5F81C9005B0BDE829
:10145000F08F0021018041808180C1800181418124
:101460008181C18107210182704700210180418073
:101470008180C1800221816000218181704721B17A
:10148000028842F04002028004E002884FF6BF73F7
:101490001A400280704721B1828B42F480628283BD
:1014A00004E0828B4FF6FF331A408283704730B5D9
:1014B000002400230C110125A540ABB21AB1858888
:1014C0001D43858002E085889D43858030BD1AB12B
:1014D00083880B43838002E083888B43838070473B
:1014E000818170470146888970474FF6FF629142BB
:1014F00004D0028842F48072028004E002884FF631
:10150000FF631A400280704721B1828842F00402D2
:10151000828004E082884FF6FB731A408280704715
:1015200002884FF2FF731A40028002880A43028049
:101530007047018841F480510180704721B10288D1
:1015400042F40052028004E002884DF6FF731A4014
:101550000280704702460020012901D0108B00E074
:10156000908A70470146088A7047B1F5804F04D1D0
:10157000028842F48042028004E002884BF6FF7346
:101580001A40028070470246002013890B400BB1BD
:10159000012000E000207047CA4302817047F0B587
:1015A0000246002000240023002501F00F07012639
:1015B000BE40B4B20B1101269E40B3B2968806EA33
:1015C00003051689264016B10DB1012000E0002068
:1015D000F0BD10B5002201F00F040123A3409AB220
:1015E000D343038110BD00000030014000380040AB
:1015F000003C004010B50446FE48844208D1012159
:10160000C014FFF727FE0021E014FFF723FEC4E01B
:10161000B4F1804F08D101210846FFF728FE0021D0
:101620000120FFF724FEB8E0F348844208D10121ED
:101630000220FFF71CFE00210220FFF718FEACE09D
:10164000EE48844208D101210420FFF710FE00215A
:101650000420FFF70CFEA0E0E948844208D10121F4
:101660000820FFF704FE00210820FFF700FE94E0A9
:10167000E448844208D101211020FFF7F8FD002141
:101680001020FFF7F4FD88E0DF48844208D10121F3
:101690002020FFF7ECFD00212020FFF7E8FD7CE093
:1016A000DA48844208D101214014FFF7D3FD00211C
:1016B0006014FFF7CFFD70E0D548844209D10121C5
:1016C000C804FFF7C7FD00214FF40020FFF7C2FD5B
:1016D00063E0D048844209D101210805FFF7BAFD33
:1016E00000214FF48010FFF7B5FD56E0CA48844250
:1016F00009D101214805FFF7ADFD00214FF400108D
:10170000FFF7A8FD49E0C548844208D101214020E7
:10171000FFF7ADFD00214020FFF7A9FD3DE0C048E7
:10172000844208D101218020FFF7A1FD0021802003
:10173000FFF79DFD31E0BB48844208D101218015AF
:10174000FFF795FD0021A015FFF791FD25E0B648B4
:10175000844209D101210804FFF77CFD00214FF4E8
:101760008030FFF777FD18E0B048844209D10121AD
:101770004804FFF76FFD00214FF40030FFF76AFDCA
:101780000BE0AB48844208D101218804FFF762FDD9
:1017900000214FF48020FFF75DFD10BD002202887C
:1017A000944B98420ED0994B98420BD0B0F1804F99
:1017B00008D0914B984205D0904B984202D0904B64
:1017C000984204D14FF68F731A404B881A438D4BC1
:1017D000984207D08C4B984204D04FF6FF431A40F2
:1017E000CB881A4302808B8883850B880385814BC5
:1017F00098420BD0854B984208D08B4B984205D02D
:101800008A4B984202D08A4B984201D10B7A0386C8
:1018100001238382704770B5002400220023058CC9
:101820004FF6FE7635400584028C8388048B4FF694
:101830008F752C40B51E2C400D882C43751E2A40F8
:101840000D892A434D882A436A4DA8420BD06F4D1B
:10185000A84208D0744DA84205D0744DA84202D0C9
:10186000734DA84213D14FF6F7752A404D892A438C
:101870004FF6FB752A408D882A434FF6FF652B40B3
:101880004FF6FF552B408D892B43CD892B43838009
:101890000483CD888586028470BD70B50024002243
:1018A0000023058C4FF6EF7635400584028C838843
:1018B000048B48F6FF752C404FF6FF452C400D88F1
:1018C0004FF6FF7606EA05252C434FF6DF752A40D2
:1018D0000D8906EA05152A434D8806EA05152A43AF
:1018E000444DA84202D0494DA8421DD14FF67F7504
:1018F0002A404D894FF6FF7606EA05152A434FF632
:10190000BF752A408D8806EA05152A434FF6FF3534
:101910002B404FF2FF752B408D8906EA85052B433E
:10192000CD8906EA85052B4383800483CD8805870E
:10193000028470BD70B5002400220023058C4FF690
:10194000FF6635400584028C8388848B4FF68F7543
:101950002C404FF6FC752C400D882C434FF6FF555C
:101960002A400D894FF6FF7606EA05252A434D8861
:1019700006EA05252A431F4DA84202D0234DA8425E
:101980001DD14FF2FF752A404D894FF6FF7606EACA
:1019900005252A434FF6FF352A408D8806EA05259E
:1019A0002A434EF6FF752B404DF6FF752B408D896F
:1019B00006EA05152B43CD8906EA05152B438380DE
:1019C0008483CD888587028470BD70B50022002392
:1019D0000024058C4EF6FF7635400584038C848800
:1019E000828B48F6FF752A404FF6FF452A400D8846
:1019F00020E00000002C01400004004000080040EE
:101A0000000C004000100040001400400034014071
:101A1000004C0140005001400054014000180040BB
:101A2000001C0040002000400040014000440140F4
:101A3000004801404FF6FF7606EA05252A434DF699
:101A4000FF752B400D8906EA05352B434D8806EAC4
:101A500005352B43FA4DA84202D0FA4DA84208D1D1
:101A60004BF6FF752C408D894FF6FF7606EA8515FB
:101A70002C4384808283CD88A0F84050038470BDBD
:101A8000828B4FF2FF331A408283828B4FF6FF73B3
:101A900003EA01231A4382837047F0B50C461546CA
:101AA000002200210026078C4EF6FF7C07EA0C0777
:101AB0000784828B018C4FF6FF7707EA043640F6E5
:101AC000FF473A404FF6FF7707EA05273A434FF6BC
:101AD000FF7707EA03373A43D94FB8420ED0D94FC0
:101AE000B8420BD0B0F1804F08D0D74FB84205D0E4
:101AF000D64FB84202D0D64FB84206D14DF6FF7746
:101B0000394046F48057394305E047F6FF573940DE
:101B100044F48057394382830184F0BD828B4FF6B1
:101B2000F3731A408283828B0A4382837047F0B535
:101B30000C461546002200210026078C4FF6FF6C4C
:101B400007EA0C070784828B018C4FF6FF7707EAC0
:101B500004264FF60C773A404FF6FF7707EA031753
:101B60002F433A43B64FB8420ED0B64FB8420BD0CF
:101B7000B0F1804F08D0B44FB84205D0B34FB8424F
:101B800002D0B34FB84206D14FF6FF57394046F462
:101B90008077394305E04FF2FF57394044F48077AE
:101BA000394382830184F0BD028B4FF2FF331A4028
:101BB0000283028B4FF6FF7303EA01231A43028369
:101BC0007047F0B50C461546002200210026078C10
:101BD0004FF6EF7C07EA0C070784028B018C4FF667
:101BE000FF7707EA041640F6FF473A404FF6FF77C3
:101BF00007EA03373A434FF6FF7707EA05273A43E8
:101C00008F4FB8420ED08F4FB8420BD0B0F1804FFB
:101C100008D08D4FB84205D08C4FB84202D08C4FBF
:101C2000B84206D14FF6DF77394046F01007394306
:101C300005E04FF65F77394044F0100739430283DF
:101C40000184F0BD028B4FF6F3731A400283028BBE
:101C50000A4302837047F0B50C4615460022002166
:101C6000068C4FF6FE773E400684028B018C4FF6C1
:101C70000C7632407E1C06EA03162E433243704E29
:101C8000B0420ED06F4EB0420BD0B0F1804F08D0B2
:101C90006D4EB04205D06D4EB04202D06C4EB04297
:101CA00006D14FF6FD76314044F00106314305E0A0
:101CB0004FF6F576314044F001063143028301844A
:101CC000F0BD70B505460C465D4885420ED05D48B6
:101CD00085420BD0B5F1804F08D05B48854205D0D6
:101CE0005A48854202D05A48854200D100E000BFE0
:101CF000208850B92389A28861882846FFF7ABFF66
:101D0000E1882846FFF79EFF25E0208804280AD1B5
:101D10002389A28861882846FFF753FFE188284677
:101D2000FFF742FF17E0208808280AD12389A288FC
:101D300061882846FFF7FBFEE1882846FFF7EEFEA4
:101D400009E02389A28861882846FFF7A6FEE1887A
:101D50002846FFF795FE70BD2DE9F04105460C467B
:101D600000260127608808B9022600E00026A08826
:101D7000012801D1022700E001272088A0B923898A
:101D8000A28861882846FFF766FFE1882846FFF7AA
:101D900059FF23893A4631462846FFF712FFE1886A
:101DA0002846FFF701FF13E02389A28861882846AF
:101DB000FFF707FFE1882846FFF7F6FE23893A463A
:101DC00031462846FFF747FFE1882846FFF73AFFEC
:101DD000BDE8F0810A884B881A438B881A43CB8868
:101DE0001A430B891A434B891A438B891A43A0F86B
:101DF000442070474FF6FF71818000210180C1802F
:101E00004180017270470021018041808180C18042
:101E1000018141818181C181704700210180418020
:101E2000012181800021C180018170470021018052
:101E300041808180C18001814181818170470000A2
:101E4000002C014000340140000400400008004024
:101E5000000C004021B1028842F00102028004E03F
:101E600002884FF6FE731A400280704731B1B0F815
:101E7000442042F40042A0F8442005E0B0F8442099
:101E8000C2F30E02A0F8442070471AB183890B43B5
:101E9000838102E083898B4383817047818270470D
:101EA00041EA0203A0F8483070471AB183890B4316
:101EB000838102E083898B438381704701894FF6D8
:101EC000F8721140018170470A46002101894FF6DE
:101ED0008F73194011430181704730B504460D4698
:101EE00029462046FFF7F0FF208940F007002081B7
:101EF00030BD2DE9F04104460D4616461F46602DC3
:101F000006D13B46012231462046FFF75AFE05E046
:101F10003B46012231462046FFF79DFE29462046DA
:101F2000FFF7D2FF208940F007002081BDE8F08153
:101F300030B50C4600210189C9B24FF6FF7505EA9C
:101F40000325154325432943018130BD2DE9F04187
:101F500005460E4617469846002443463A46314603
:101F60002846FFF7E5FF2C894FF6F870044044F04F
:101F700007044FF68F70044044F070042C81BDE8D4
:101F8000F081F0B504460D4616461F463B463246E4
:101F900029462046FFF7CCFF208940F4804020816D
:101FA000F0BD0185828270470A46002101884FF604
:101FB0008F731940114301807047F0B50C461546E8
:101FC0001E460021002200230189028B038C4FF65C
:101FD000F877394021434FF6FC473A4040F2011769
:101FE0003A434FF6DD773B404FF6FF7707EA061797
:101FF0002F433B43018102830384F0BD0A46002145
:10200000018B4FF68F7319401143018370470A46C5
:102010000021018B48F6FF7319404FF6FF7303EA66
:1020200002231943018370470A460021818B4FF632
:102030008F7319401143818370470A460021818BB9
:1020400048F6FF7319404FF6FF7303EA0223194362
:102050008183704721B1028842F08002028004E04F
:1020600002884FF67F731A400280704721B1828840
:1020700042F00402828004E082884FF6FB731A402B
:102080008280704721B1828842F00802828004E099
:1020900082884FF6F7731A408280704721B1828898
:1020A00042F00102828004E082884FF6FE731A40FB
:1020B000828070470A460021018B4FF6F773194062
:1020C0001143018370470A460021018B4FF2FF73D1
:1020D00019404FF6FF7303EA022319430183704747
:1020E0000A460021818B4FF6F77319401143818313
:1020F00070470A460021818B4FF2FF7319404FF65B
:10210000FF7303EA02231943818370470A460021C3
:10211000018B4FF6FB7319401143018370470A4648
:102120000021018B4FF6FF3319404FF6FF7303EA8E
:1021300002231943018370470A460021818B4FF621
:10214000FB7319401143818370470A460021818B3C
:102150004FF6FF3319404FF6FF7303EA022319438A
:10216000818370470A460021018B4FF67F73194027
:102170001143018370470A460021018BC1F30E0110
:102180004FF6FF7303EA02231943018370470A469F
:102190000021818B4FF67F73194011438183704773
:1021A0000A460021818BC1F30E014FF6FF7303EA4B
:1021B00002231943818370470A460021018C4FF6A0
:1021C000FD7319401143018470470A460021018CB8
:1021D0004FF6F77319401143018470470A460021F6
:1021E000018C4FF6DF7319404FF6FF7303EA0213B9
:1021F0001943018470470A460021018C4FF67F7312
:1022000019404FF6FF7303EA021319430184704724
:102210000A460021018C4FF6FF5319404FF6FF7319
:1022200003EA02231943018470470A460021018C06
:102230004FF2FF7319404FF6FF7303EA022319436D
:10224000018470470A460021018C4DF6FF73194046
:102250004FF6FF7303EA023319430184704730B528
:10226000002301248C40A3B2048C9C430484048C7E
:1022700002FA01F5ADB22C43048430BD30B5002321
:1022800004248C40A3B2048C9C430484048C02FA82
:1022900001F5ADB22C43048430BD70B50346002077
:1022A00000241846183001258D40ACB21D8CA54382
:1022B0001D8409B1082909D100EB6100056825F0EA
:1022C000700505600568154305600EE00D1FC5F338
:1022D0004E052844056825F4E045056005684FF67D
:1022E000FF7606EA02263543056070BD21B10288FB
:1022F00042F00202028004E002884FF6FD731A40A9
:102300000280704721B1028842F00402028004E09A
:1023100002884FF6FB731A400280704721B1828811
:1023200042F08002828004E082884FF67F731A4078
:102330008280704702884FF6F7731A400280028845
:102340000A430280704782884FF68F731A4082805A
:1023500082880A438280704702894FF6F8731A40D8
:10236000028102890A430281704702894FF67F7316
:102370001A40028102890A430281704781847047B2
:1023800081857047818670470187704781877047D4
:10239000A0F84010704702884FF6FF431A400280B1
:1023A00002880A43028070470146888E70470146C2
:1023B000088F70470146888F70470146B1F840008A
:1023C00070470146888C70470146088D7047024669
:1023D0000020138A0B400BB1012000E00020704761
:1023E000CA430282704730B5024600200023002411
:1023F000158A05EA0103958905EA010413B10CB1B8
:10240000012000E0002030BDCA4302827047000076
:1024100010B50446FB48844209D101218803FEF728
:1024200019FF00214FF48040FEF714FF32E0F64818
:10243000844209D101214804FEF719FF00214FF41D
:102440000030FEF714FF25E0F048844209D1012155
:102450008804FEF70CFF00214FF48020FEF707FFF1
:1024600018E0EB48844209D10121C804FEF7FFFEC1
:1024700000214FF40020FEF7FAFE0BE0E54884420D
:1024800008D101210805FEF7F2FE00214FF480106B
:10249000FEF7EDFE10BD2DE9F04786B005460E466D
:1024A0000024A24600BFA1460027B08900B100BFAA
:1024B0002F462C8A4CF6FF700440F08804432C828F
:1024C000AC894EF6F3100440B08831890843718915
:1024D00008430443AC81AC8A4FF6FF400440B08906
:1024E0000443AC8201A8FEF72EFEC648874202D103
:1024F000DDF810A001E0DDF80CA0A88900F4004090
:1025000040B10AEBCA0000EB0A1031684900B0FB89
:10251000F1F807E00AEBCA0000EB0A103168890005
:10252000B0FBF1F86420B8FBF0F00401200964214D
:1025300001FB1089A88900F4004040B1322000EB73
:10254000C900B0FBF1F000F00700044308E03220BE
:1025500000EB09106421B0FBF1F000F00F00044320
:102560002C8106B0BDE8F0874FF4165101600021C0
:102570008180C18001810C214181002181817047CE
:1025800010B502460020108A4FF2FF0318400B8856
:102590004C8823438C882343CC88234318431082E0
:1025A00010BD0021018041808180C180704721B130
:1025B000828942F40052828104E082894DF6FF73E1
:1025C0001A4082817047F0B503460024002600259A
:1025D000002040F66A17B94200D100BF1846C1F387
:1025E000421401F01F06012707FA06F5012C01D15C
:1025F0000C3004E0022C01D1103000E014301AB18C
:1026000007682F43076002E00768AF430760F0BD2B
:102610001AB1838A0B43838202E0838A8B438382CD
:102620007047028A4FF6F0731A400282028A0A4308
:102630000282704782894FF2FF731A408281828939
:102640000A438281704721B1828942F0020282816D
:1026500004E082894FF6FD731A4082817047028A36
:102660004FF6DF731A400282028A0A4302827047E1
:1026700021B1028A42F48042028204E0028A4BF6CF
:10268000FF731A4002827047C1F3080282807047CC
:1026900001468888C0F308007047818941F0010134
:1026A00081817047028BD2B20283028B42EA0122FF
:1026B00002837047028B02F47F420283028B0A433B
:1026C0000283704721B1828A42F02002828204E0B4
:1026D000828A4FF6DF731A408282704721B1828A64
:1026E00042F01002828204E0828A4FF6EF731A40B1
:1026F0008282704721B1828A42F00802828204E01D
:10270000828A4FF6F7731A408282704721B182891C
:1027100042F40042828103E08289C2F30E02828188
:10272000704721B1828A42F40062828204E0828A88
:102730004FF2FF731A4082827047828A4FF6FB7312
:102740001A408282828A0A438282704721B1828A39
:1027500042F00202828204E0828A4FF6FD731A4040
:102760008282704702460020B1F5007F00D100BF91
:1027700013880B400BB1012000E00020704701F4EA
:102780000072B2F5007F00D100BFCA4302807047DB
:1027900070B50246002400230025002040F66A168A
:1027A000B14200D100BFC1F3421501F01F03012661
:1027B00006FA03F3012D02D19689334006E0022D7B
:1027C00002D1168A334001E0968A33400C1201266A
:1027D00006FA04F41688344013B10CB1012000E06D
:1027E000002070BD10B50022002340F66A14A142FB
:1027F00000D100BF0A1201249440A3B2DC4304803C
:1028000010BD000000380140004400400048004076
:10281000004C00400050004070B504460D4625B104
:102820000421C548FEF7EDFA03E00421C248FEF793
:10283000EAFA00BF0221C148FEF7A5FE0028F9D040
:102840002146BE48FEF74CFE70BD70B500241CE06A
:1028500004F1B001C8B20021FFF7DEFF00210846F5
:10286000FFF7DAFF00211020FFF7D6FF002508E070
:10287000B34901EBC501085D0121FFF7CDFF681CDD
:10288000C5B2802DF4DB601CC4B2082CE0DB70BD47
:1028900070B500240CE0002506E00020A84901EBFB
:1028A000C5010855681CC5B2802DF6DB601CC4B29A
:1028B000082CF0DBFFF7C9FF70BDF0B514460B46DE
:1028C000CF1701EB5777C7F3C702CF1701EB577745
:1028D000FF10A1EBC707FEB20123B340DDB24CB13C
:1028E000974B03EBC0039B5C2B43954F07EBC00753
:1028F000BB541AE0924B03EBC0039B5CDB43904F4D
:1029000007EBC007BB548E4B03EBC0039B5C2B4310
:102910008B4F07EBC007BB54894B03EBC0039B5C99
:10292000DB43874F07EBC007BB54F0BD10B504462F
:102930001CB90021A620FFF76FFF012C03D1002155
:10294000A720FFF769FF10BD10B504463CB9002170
:10295000C820FFF761FF0021A120FFF75DFF012CD8
:1029600007D10021C020FFF757FF0021A020FFF76B
:1029700053FF10BD10B508216F48FEF744FAC82078
:1029800000F059FD08216C48FEF73BFA0021AE200B
:10299000FFF742FF00210846FFF73EFF002110200D
:1029A000FFF73AFF00214020FFF736FF002181208A
:1029B000FFF732FF00215F20FFF72EFF0021A1204B
:1029C000FFF72AFF0021C820FFF726FF0021A620DD
:1029D000FFF722FF0021A820FFF71EFF00213F2064
:1029E000FFF71AFF0021D320FFF716FF002108464A
:1029F000FFF712FF0021D520FFF70EFF00218020F6
:102A0000FFF70AFF0021D920FFF706FF0021F12080
:102A1000FFF702FF0021DA20FFF7FEFE002112205F
:102A2000FFF7FAFE0021DB20FFF7F6FE0021402031
:102A3000FFF7F2FE00212020FFF7EEFE002102202A
:102A4000FFF7EAFE00218D20FFF7E6FE00211420AB
:102A5000FFF7E2FE0021A420FFF7DEFE0021A62002
:102A6000FFF7DAFEFFF714FF0021AF20FFF7D4FED7
:102A700010BD00B587B001210420FEF7D1FB012174
:102A80000803FEF7CDFB18208DF81B00A020ADF841
:102A9000180003208DF81A0006A92748FEF704F94C
:102AA0000E20ADF8180010208DF81B0003208DF8C3
:102AB0001A0006A92048FEF7F7F80020ADF8040038
:102AC0004FF48270ADF806000020ADF80800ADF8B4
:102AD0000A00ADF80C004FF40070ADF80E000020B5
:102AE000ADF81000ADF8120001A91448FEF722FC61
:102AF00001211248FEF7C3FC07B000BD10B5FFF777
:102B0000B8FFFFF737FF0A2000F095FC0020FFF721
:102B10000DFF0A2000F08FFC0020FFF715FF0A20B0
:102B200000F089FC012214210A20FFF7C6FEFFF7FE
:102B30008CFE002010BD0000000801400030014064
:102B400034000020704700BFFEE700BFFEE700BF73
:102B5000FEE700BFFEE770477047704708B50121E8
:102B60000420FEF75DFB00208DF803000420ADF883
:102B7000000069465248FEF797F808BD00B591B0CD
:102B800001210846FEF73FFB01214802FEF748FB02
:102B90004C48FDF771FE4C4801904C4802900020D3
:102BA0000390012004900020059006904FF480705F
:102BB0000790800008902020099000020A900020D1
:102BC0000B9001A93F48FDF7F9FE01213D48FDF7B3
:102BD00020FF3D484C38FDF727FC00200C908DF875
:102BE000340001208DF835004FF460200E90002055
:102BF0000F9001208DF840000CA933484C38FDF7A8
:102C00003AFC4FF40040FEF76FFA0723012202213D
:102C10002D484C38FDF7C7FC01212B484C38FDF7F7
:102C200061FC012128484C38FDF751FC26484C38FE
:102C3000FDF76FFC00BF24484C38FDF76FFC0028FF
:102C4000F9D121484C38FDF773FC00BF1E484C38C1
:102C5000FDF773FC0028F9D101211B484C38FDF722
:102C600076FC11B000BD08B512208DF800000120DF
:102C70008DF801008DF802008DF803006846FDF71D
:102C80006AFB08BD10B5FFF769FFFFF777FFFFF795
:102C9000EAFF10BD10B54FF408710B484C38FDF732
:102CA000D3FD012805D108484C38FDF7E3FC07495E
:102CB00008804FF4087104484C38FDF7D7FD10BD6B
:102CC00000080140080002404C2401402800002078
:102CD00008B54FF4C060FDF739FB28208DF80000DF
:102CE00001208DF801008DF802008DF80300684680
:102CF000FDF731FB08BD0EB501210920FEF790FA62
:102D0000FFF7E6FF4FF40060ADF8080048208DF8AB
:102D10000B0002A91E48FDF7C7FF0B210120FEF79B
:102D2000D9F84FF40060009000208DF804000820CE
:102D30008DF8050001208DF806006846FDF7D4FEE9
:102D40000EBD10B54FF40060FDF734FFD8B14FF45D
:102D50007A71002000F087FC4FF47A71012000F0B6
:102D6000AFFC40F62E6000F066FB4FF47A71012054
:102D700000F079FC4FF47A71002000F0A1FC40F6DD
:102D8000B83000F058FB4FF40060FDF724FF10BD91
:102D9000000C014000B589B001210820FEF740FA7F
:102DA00001210420FEF749FA4020ADF82000182048
:102DB0008DF8230003208DF8220008A96A48FDF74A
:102DC00073FF40F2CF70ADF8180040F2CF20ADF89D
:102DD00014000020ADF81A00ADF816008DF81C00A4
:102DE00005A96248FEF7DAFC6020ADF80400012076
:102DF000ADF806000020ADF80C0001A95B48FEF715
:102E00000AFD08215948FFF755F901215748FFF7F6
:102E100021F809B000BD10B5044621465348FFF71C
:102E2000B1FA10BD00B585B001210220FEF705FA08
:102E300001210420FEF7F4F91020ADF810008DF800
:102E4000130003208DF8120004A94948FDF72CFF58
:102E50002020ADF8100004208DF8130003208DF819
:102E6000120004A94248FDF71FFF0020ADF80A0038
:102E700040F2E730ADF808004720ADF8040000202C
:102E8000ADF8060001A93B48FEF788FC0122114677
:102E90003848FEF7FAFF1D208DF8000000208DF85D
:102EA000010003208DF8020001208DF80300684620
:102EB000FDF751FA00212F48FEF7CCFF05B000BD09
:102EC0002DE9F04700BF10212948FDF79AFF142093
:102ED00000F0A2FA10212648FDF795FF00BF20213F
:102EE0002348FDF774FF0028F9D001212148FEF79F
:102EF000B1FF00BF20211E48FDF769FF0128F9D06E
:102F000000211C48FEF7A6FF1A48FFF75AFA0446AC
:102F10001949097801EB4102C2EBC11104EBC10070
:102F200000F071FC07460022144B00F0FDFB054643
:102F300000F07AFC814600200E49243108800E49B9
:102F400008704846BDE8F08710B501210948FFF731
:102F50004AFA40B101210748FFF756FA06480078BF
:102F6000401C0549087010BD000C014000080040DD
:102F700000080140000400402A00002000004D40ED
:102F800008B54FF4E060FDF7E1F91D208DF8000071
:102F900000208DF8010003208DF8020001208DF83B
:102FA00003006846FDF7D7F908BD00B587B00121D9
:102FB0001020FEF742F940F2E730ADF80400472058
:102FC000ADF8000069467448FEF7E8FB012173483C
:102FD000FEF740FF6020ADF80C000120ADF80E00B8
:102FE0000020ADF814009620ADF8120003A96A483D
:102FF000FEF711FC08216848FFF75CF807B000BD38
:1030000000B589B001210420FEF70AF9012108204A
:10301000FEF706F901210220FEF70FF94020ADF876
:10302000200018208DF8230003208DF8220008A925
:103030005B48FDF739FE8020ADF8200018208DF8A0
:10304000230003208DF8220008A95548FDF72CFE27
:103050000120ADF8200018208DF8230003208DF802
:10306000220008A94F48FDF71FFE0220ADF82000FE
:1030700018208DF8230003208DF8220008A9494864
:10308000FDF712FE40F2CF70ADF8180040F2CF20ED
:10309000ADF814000020ADF81A00ADF816008DF858
:1030A0001C0005A93C48FEF779FB6020ADF8040040
:1030B0000120ADF806000220ADF80C0001A9364849
:1030C000FEF7A9FB6020ADF804000120ADF8060072
:1030D0000220ADF80C0001A92F48FEF7DEFB6020AE
:1030E000ADF804000120ADF806000220ADF80C0098
:1030F00001A92948FEF71EFC6020ADF8040001205C
:10310000ADF806000220ADF80C0001A92248FEF738
:103110005CFC08212048FEF7CDFF08211E48FEF781
:10312000D2FF08211C48FEF7DBFF08211A48FEF7F2
:10313000E0FF01211848FEF78DFE09B000BD10B573
:10314000FFF733FF10BD2DE9F04104460F46154649
:103150001E4621461048FFF715F939460E48FFF77D
:1031600011F929460C48FFF70DF931460A48FFF7D7
:1031700009F9BDE8F08110B501210748FFF733F9DF
:1031800040B109480068401C074908600121024815
:10319000FFF73AF910BD00000004004000100040A5
:1031A00000080140000C01402C00002000B587B051
:1031B00001210420FEF734F801218803FEF730F8DE
:1031C0004FF40070ADF8180018208DF81B00032094
:1031D0008DF81A0006A98B48FDF766FD4FF4806054
:1031E000ADF8180004208DF81B0006A98548FDF7EE
:1031F0005BFD25208DF8040003208DF805008DF877
:10320000060001208DF8070001A8FDF7A4F84FF48F
:10321000E13002900020ADF80C00ADF80E00ADF8E2
:103220001000ADF814000C20ADF8120002A9764889
:10323000FFF731F9012240F225517348FFF7C3F936
:1032400001217148FFF7B3F907B000BD00B585B0A3
:1032500001210420FDF7E4FF01214804FDF7EDFF03
:103260000420ADF8100018208DF8130003208DF80D
:10327000120004A96348FDF717FD0820ADF81000FF
:1032800004208DF8130004A95E48FDF70DFD4FF4EE
:10329000E13000900020ADF80400ADF80600ADF874
:1032A0000800ADF80C000C20ADF80A00694657483C
:1032B000FFF7F1F8012240F225515448FFF783F956
:1032C00001215248FFF773F905B000BD70B50446FF
:1032D0000D4629462046FFF7D7F900BF802120463A
:1032E000FFF740FA0028F9D070BD70B506460C46CD
:1032F000002500BF615D3046FFF7E8FF6D1C605D93
:103300000028F7D100BF40213046FFF72BFA0028F4
:10331000F9D070BD2DE9F04105460C46260AE7B20A
:1033200031462846FFF7B0F900BF80212846FFF755
:1033300019FA0028F9D039462846FFF7A5F900BF49
:1033400080212846FFF70EFA0028F9D0BDE8F08169
:1033500070B504460D46E1B22B48FFF795F900BF62
:1033600080212948FFF7FEF90028F9D0204670BDDA
:1033700010B5044600BF20212348FFF7F3F90028C9
:10338000F9D02148FFF784F910BD10B540F225515E
:103390001D48FFF7FDF910B31B48FFF779F9C4B2D8
:1033A0001B48008800F40040C8B91948008800F4A0
:1033B000804060B10A2C03D000201549088020E02D
:1033C0001348008840F400401149088019E00D2C92
:1033D00006D10F48008840F480400D49088010E075
:1033E0000B480088C0F30D000A490C5408480088B7
:1033F000401C0749088008460088312801DD00206C
:10340000088010BD00080140003801400044004021
:1034100030000020B4040020002106E00A2100BF93
:103420000A1EA1F1010399B2FAD1021EA0F1010313
:1034300098B2F3D17047002107E042F6E06100BF87
:103440000A1EA1F1010399B2FAD1021EA0F10103F3
:1034500098B2F2D17047000008B501210420FDF7B1
:10346000DFFE1020ADF800008DF8030003208DF87A
:1034700002006946A848FDF717FC2020ADF80000BF
:1034800010208DF8030003208DF802006946A24841
:10349000FDF70AFC08BD30B589B005460C46012190
:1034A0000420FDF7BDFE01210846FDF7C6FE012000
:1034B000ADF8200018208DF8230003208DF822009D
:1034C00008A99548FDF7F0FB0220ADF8200008A9F7
:1034D0009148FDF7E9FB0420ADF8200008A98E48CB
:1034E000FDF7E2FB0820ADF8200008A98A48FDF7A7
:1034F000DBFBADF81850ADF814400020ADF81A0011
:10350000ADF816008DF81C0005A94FF08040FEF7BD
:1035100045F96020ADF804000120ADF80600002058
:10352000ADF80C0001A94FF08040FEF774F901A935
:103530004FF08040FEF7B1F901A94FF08040FEF74F
:10354000F9F901A94FF08040FEF73FFA0022114639
:103550004FF08040FEF783FE002204210807FEF7AB
:103560007EFE00220821C806FEF779FE00220C210B
:103570004FF08040FEF773FE00214FF08040FEF7D1
:1035800069FC09B030BD30B589B005460C46012153
:103590000C20FDF745FE01210220FDF74EFE4020E4
:1035A000ADF8200018208DF8230003208DF82200AC
:1035B00008A95948FDF778FB8020ADF8200008A93C
:1035C0005548FDF771FB0120ADF8200008A95348CC
:1035D000FDF76AFB0220ADF8200008A94F48FDF76F
:1035E00063FBADF81850ADF814400020ADF81A0098
:1035F000ADF816008DF81C0005A94948FEF7CEF875
:103600006020ADF804000120ADF806000020ADF800
:103610000C0001A94248FEF7FEF801A94048FEF758
:103620003CF901A93E48FEF785F901A93C48FEF79F
:10363000CCF9002211463A48FEF711FE002204217F
:103640003748FEF70CFE002208213548FEF707FE3A
:1036500000220C213248FEF702FE00213048FEF71E
:10366000F9FB09B030BD70B504460D46012C04D1FC
:1036700010212948FDF7C5FB04E01CB9102126489C
:10368000FDF7C1FB274890FBF5F0401E86B240F2E3
:10369000CF213046FFF7FFFE4CF2503090FBF5F0A3
:1036A00086B231464FF08040FEF76CFE01220021C9
:1036B0009007FEF7D4FD01218807FEF7CBFB70BD14
:1036C00070B504460D46012C04D120211248FDF7A7
:1036D00098FB04E01CB920210F48FDF794FB11482A
:1036E00090FBF5F0401E86B240F2CF213046FFF746
:1036F0004AFF4CF2503090FBF5F086B23146084854
:10370000FEF740FE012200210548FEF7A8FD012139
:103710000348FEF79FFB70BD00080140000C01400C
:1037200000040040A08601002DE9F04D81EA030469
:1037300004F0004B21F0004514464FF0000A23F03E
:10374000004150EA050220D054EA01021DD0C5F321
:103750000A570246C5F31303C1F31300C1F30A5617
:1037600040F4801543F48013A7EB0608101BD646DF
:1037700008F2FD3873EB050002D308F1010801E0FF
:1037800092185B41B8F1000F03DA00200146BDE852
:10379000F08D00204FF48011064684460EE0171B82
:1037A00073EB050705D3121B63EB050306434CEAD5
:1037B000010C49084FEA300092185B4150EA0107BA
:1037C000EDD152EA030012D082EA040083EA050137
:1037D000084305D0101BAB4106D20122002306E0AE
:1037E00000224FF0004302E06FF0010253101AEB89
:1037F00006004CEB085110EB0A0041EB0B01BDE851
:10380000F04D00F064B80EB5C10F80EAE0700844D6
:10381000CA07002140F233438DE80E000A460B46EA
:1038200000F064F803B000BD01F0004330B421F0B3
:10383000004150EA010206D00A0DA2F56072C1F300
:103840001301002A02DC30BC00207047440F44EA18
:10385000C104C100E01830BC00EBC250AFF30080DF
:103860000029A8BF7047401C490008BF20F0010094
:10387000704710B4B0FA80FC00FA0CF050EA010472
:1038800004BF10BC704749B1CCF1200421FA04F404
:1038900011FA0CF118BF012121430843A3EB0C01DD
:1038A000CB1D4FEA00614FEA102042BF002010BC40
:1038B000704700EBC35010440029A4BF10BC7047F0
:1038C000401C490008BF20F0010010BC704710B533
:1038D000141E73F1000408DA401C41F10001921833
:1038E0005B411A4301D120F0010010BD2DE9F04DDC
:1038F00092469B4611B1B1FA81F202E0B0FA80F231
:103900002032904600F052F804460F4640EA0A0082
:1039100041EA0B0153465A46084313D0114653EA75
:10392000010019D0C8F14002504600F04EF805469B
:103930000E4650465946424600F038F8084305D036
:10394000012004E020463946BDE8F08D0020054303
:1039500046EAE0762C4337430A986305E40AA0EB75
:1039600008000022FD0A44EA47540A3002D500202C
:103970000146E9E7010510196941DDE9084500192B
:103980006941BDE8F04DA2E7064C074D06E0E0684E
:1039900040F0010394E8070098471034AC42F6D396
:1039A000FCF7CAFB083A0008283A0008202A04DB82
:1039B000203A00FA02F1002070479140C2F1200342
:1039C00020FA03F3194390407047202A04DB203A81
:1039D00021FA02F00021704721FA02F3D040C2F12F
:1039E0002002914008431946704702E008C8121FA0
:1039F00008C1002AFAD170477047002001E001C1D8
:103A0000121F002AFBD17047283A0008000000204E
:103A100034000000EA3900085C3A00083400002055
:103A2000B4080000FA39000800A24A0400000000AF
:103A3000000000000102030406070809000000005E
:103A40000102030401020304060708090204060830
:0C3A50000000000000000000000000006A
:0400000508000131BD
:00000001FF
